{
  "_format": "hh-sol-artifact-1",
  "contractName": "ToDoList",
  "sourceName": "contracts/ToDoList.sol",
  "abi": [
    {
      "anonymous": false,
      "inputs": [
        {
          "indexed": false,
          "internalType": "uint256",
          "name": "id",
          "type": "uint256"
        },
        {
          "indexed": false,
          "internalType": "bool",
          "name": "completed",
          "type": "bool"
        }
      ],
      "name": "TaskCompleted",
      "type": "event"
    },
    {
      "anonymous": false,
      "inputs": [
        {
          "indexed": false,
          "internalType": "uint256",
          "name": "id",
          "type": "uint256"
        },
        {
          "indexed": false,
          "internalType": "string",
          "name": "content",
          "type": "string"
        },
        {
          "indexed": false,
          "internalType": "bool",
          "name": "completed",
          "type": "bool"
        }
      ],
      "name": "TaskCreated",
      "type": "event"
    },
    {
      "inputs": [
        {
          "internalType": "string",
          "name": "_content",
          "type": "string"
        }
      ],
      "name": "createTask",
      "outputs": [],
      "stateMutability": "nonpayable",
      "type": "function"
    },
    {
      "inputs": [],
      "name": "taskCount",
      "outputs": [
        {
          "internalType": "uint256",
          "name": "",
          "type": "uint256"
        }
      ],
      "stateMutability": "view",
      "type": "function"
    },
    {
      "inputs": [
        {
          "internalType": "uint256",
          "name": "",
          "type": "uint256"
        }
      ],
      "name": "tasks",
      "outputs": [
        {
          "internalType": "uint256",
          "name": "id",
          "type": "uint256"
        },
        {
          "internalType": "string",
          "name": "content",
          "type": "string"
        },
        {
          "internalType": "bool",
          "name": "completed",
          "type": "bool"
        }
      ],
      "stateMutability": "view",
      "type": "function"
    },
    {
      "inputs": [
        {
          "internalType": "uint256",
          "name": "_id",
          "type": "uint256"
        }
      ],
      "name": "toggleTask",
      "outputs": [],
      "stateMutability": "nonpayable",
      "type": "function"
    }
  ],
  "bytecode": "0x60806040526000600155348015601457600080fd5b50610aae806100246000396000f3fe608060405234801561001057600080fd5b506004361061004c5760003560e01c8063111002aa14610051578063613137a41461006d5780638d97767214610089578063b6cb58a5146100bb575b600080fd5b61006b6004803603810190610066919061054c565b6100d9565b005b610087600480360381019061008291906105cb565b6101a9565b005b6100a3600480360381019061009e91906105cb565b61032d565b6040516100b2939291906106a1565b60405180910390f35b6100c36103ec565b6040516100d091906106df565b60405180910390f35b600160008154809291906100ec90610729565b919050555060405180606001604052806001548152602001828152602001600015158152506000806001548152602001908152602001600020600082015181600001556020820151816001019081610144919061097d565b5060408201518160020160006101000a81548160ff0219169083151502179055509050507f05d0fb833127fc08168556d0e7ca9554fc3f6bc843b3b7d2bf1c35aea6bab66060015482600060405161019e939291906106a1565b60405180910390a150565b6000806000838152602001908152602001600020604051806060016040529081600082015481526020016001820180546101e2906107a0565b80601f016020809104026020016040519081016040528092919081815260200182805461020e906107a0565b801561025b5780601f106102305761010080835404028352916020019161025b565b820191906000526020600020905b81548152906001019060200180831161023e57829003601f168201915b505050505081526020016002820160009054906101000a900460ff1615151515815250509050806040015115816040019015159081151581525050806000808481526020019081526020016000206000820151816000015560208201518160010190816102c8919061097d565b5060408201518160020160006101000a81548160ff0219169083151502179055509050507fe21fa966ca5cd02748c0752352d18c48165e61cb55b4c29cccf924b5a95fcff1828260400151604051610321929190610a4f565b60405180910390a15050565b6000602052806000526040600020600091509050806000015490806001018054610356906107a0565b80601f0160208091040260200160405190810160405280929190818152602001828054610382906107a0565b80156103cf5780601f106103a4576101008083540402835291602001916103cf565b820191906000526020600020905b8154815290600101906020018083116103b257829003601f168201915b5050505050908060020160009054906101000a900460ff16905083565b60015481565b6000604051905090565b600080fd5b600080fd5b600080fd5b600080fd5b6000601f19601f8301169050919050565b7f4e487b7100000000000000000000000000000000000000000000000000000000600052604160045260246000fd5b61045982610410565b810181811067ffffffffffffffff8211171561047857610477610421565b5b80604052505050565b600061048b6103f2565b90506104978282610450565b919050565b600067ffffffffffffffff8211156104b7576104b6610421565b5b6104c082610410565b9050602081019050919050565b82818337600083830152505050565b60006104ef6104ea8461049c565b610481565b90508281526020810184848401111561050b5761050a61040b565b5b6105168482856104cd565b509392505050565b600082601f83011261053357610532610406565b5b81356105438482602086016104dc565b91505092915050565b600060208284031215610562576105616103fc565b5b600082013567ffffffffffffffff8111156105805761057f610401565b5b61058c8482850161051e565b91505092915050565b6000819050919050565b6105a881610595565b81146105b357600080fd5b50565b6000813590506105c58161059f565b92915050565b6000602082840312156105e1576105e06103fc565b5b60006105ef848285016105b6565b91505092915050565b61060181610595565b82525050565b600081519050919050565b600082825260208201905092915050565b60005b83811015610641578082015181840152602081019050610626565b60008484015250505050565b600061065882610607565b6106628185610612565b9350610672818560208601610623565b61067b81610410565b840191505092915050565b60008115159050919050565b61069b81610686565b82525050565b60006060820190506106b660008301866105f8565b81810360208301526106c8818561064d565b90506106d76040830184610692565b949350505050565b60006020820190506106f460008301846105f8565b92915050565b7f4e487b7100000000000000000000000000000000000000000000000000000000600052601160045260246000fd5b600061073482610595565b91507fffffffffffffffffffffffffffffffffffffffffffffffffffffffffffffffff8203610766576107656106fa565b5b600182019050919050565b7f4e487b7100000000000000000000000000000000000000000000000000000000600052602260045260246000fd5b600060028204905060018216806107b857607f821691505b6020821081036107cb576107ca610771565b5b50919050565b60008190508160005260206000209050919050565b60006020601f8301049050919050565b600082821b905092915050565b6000600883026108337fffffffffffffffffffffffffffffffffffffffffffffffffffffffffffffffff826107f6565b61083d86836107f6565b95508019841693508086168417925050509392505050565b6000819050919050565b600061087a61087561087084610595565b610855565b610595565b9050919050565b6000819050919050565b6108948361085f565b6108a86108a082610881565b848454610803565b825550505050565b600090565b6108bd6108b0565b6108c881848461088b565b505050565b5b818110156108ec576108e16000826108b5565b6001810190506108ce565b5050565b601f82111561093157610902816107d1565b61090b846107e6565b8101602085101561091a578190505b61092e610926856107e6565b8301826108cd565b50505b505050565b600082821c905092915050565b600061095460001984600802610936565b1980831691505092915050565b600061096d8383610943565b9150826002028217905092915050565b61098682610607565b67ffffffffffffffff81111561099f5761099e610421565b5b6109a982546107a0565b6109b48282856108f0565b600060209050601f8311600181146109e757600084156109d5578287015190505b6109df8582610961565b865550610a47565b601f1984166109f5866107d1565b60005b82811015610a1d578489015182556001820191506020850194506020810190506109f8565b86831015610a3a5784890151610a36601f891682610943565b8355505b6001600288020188555050505b505050505050565b6000604082019050610a6460008301856105f8565b610a716020830184610692565b939250505056fea2646970667358221220e4aee0f290437a4bf664919e78c14fb36e3993ce4650d17df16198a2dd06b29e64736f6c634300081c0033",
  "linkReferences": {},
  "deployedLinkReferences": {}
}